:100000000C94ED020C9415030C9415030C94150339
:100010000C9415030C9415030C9415030C94150300
:100020000C9415030C9415030C9415030C941503F0
:100030000C9415030C9415030C9415030C941503E0
:100040000C94AE060C9415030C94A2050C947C053C
:100050000C9415030C9415030C9415030C941503C0
:100060000C94F8060C94150342224C22562260226E
:100070006A2274227E22882292229C22A622B02208
:10008000BA22C422CE22D822E222EC224E414E498C
:100090004E495459494E46CDCCCC3D0AD7233C1746
:1000A000B7D13877CC2B329595E6241FB14F0A0093
:1000B0000020410000C84200401C4620BCBE4CCA83
:1000C0001B0E5AAEC59D7400407A10F35A00A07200
:1000D0004E18090010A5D4E80000E8764817000083
:1000E000E40B54020000CA9A3B000000E1F5050051
:1000F0000080969800000040420F000000A086019A
:10010000000000102700000000E803000000006469
:1001100000000000000A00000000000100000000D4
:10012000002C76D888DC674F0823DFC1DFAE59E1A9
:10013000B1B796E5E3E453C63AE651997696E8E618
:10014000C28426EB898C9B62ED407C6FFCEFBC9CEB
:100150009F40F2BAA56FA5F490055A2AF75C936BFD
:100160006CF9676DC11BFCE0E40D47FEF520E6B5B8
:1001700000D0ED902E0300943577050080841E0892
:100180000000204E0A000000C80C333333330F98B0
:100190006E12831141EF8D2114893BE65516CFFE77
:1001A000E6DB18D1844B381BF77C1D901DA4BBE403
:1001B00024203284725E228100C9F124ECA1E53D45
:1001C000276364696E6F70737578585B00444320D1
:1001D000456E61626C656400524D5320456E6162EC
:1001E0006C6564002C20002C200041353A20200052
:1001F0002C20002C200041343A2020002C20002C00
:10020000200041333A2020002C20002C20004132D5
:100210003A2020002C20002C200041313A202000E0
:100220002C20002C200041303A2020004144432063
:10023000426974733A20200048656C6C6F00526507
:100240006D6F7665204C696E656172697A6174695B
:100250006F6E00536574204C696E656172697A61D6
:1002600074696F6E004144432053616D706C657317
:100270003A2000566F6666583A2020003A20007AED
:100280000079007800454550524F4D20566F004F81
:100290007274686F2044697361626C6564004F72A8
:1002A00074686F20456E61626C656400454550520C
:1002B0004F4D20566F6666583A2020005047413A0D
:1002C00020004C696E3A20004F7274683A2000207A
:1002D00000200046696C7420002040204164647254
:1002E0006573733A2020005A3A2000204020416470
:1002F00064726573733A202000593A200020402030
:10030000416464726573733A202000583A200043B8
:100310006F6E74696E756F75732052656164005DF0
:100320003A20200052465B005244200042443300F1
:100330004D616E75616C20526561640052542000FD
:100340004F652A567265662F563A20006D562F5615
:100350002F4F653A2000537A3A20200053793A20F3
:10036000200053783A202000454550524F4D206DD3
:10037000562F562F4F65005444203D2000436F6E8A
:1003800074696E756F7573205265616420566F6C69
:10039000746167650052562000425633004D616E0D
:1003A00075616C2052656164002A2A2A2A2A2A2A49
:1003B0002A2A2A2A2A2A2A2A2A2A2A2A2A2A2A2A9D
:1003C0002A00536F6674776172652056657273698F
:1003D0006F6E3A2020004E6F742056616C69640085
:1003E00056616C696400454550524F4D204F727400
:1003F000686F20004E6F742056616C69640056610E
:100400006C6964002C20004E6F742056616C696426
:100410000056616C6964002C20004E6F7420566198
:100420006C69640056616C696400454550524F4DDB
:10043000204C696E20004E6F742056616C69640018
:1004400056616C6964002C20004E6F742056616CFC
:1004500069640056616C6964002C20004E6F742042
:1004600056616C69640056616C6964004545505280
:100470004F4D2043616C20002C20002C20002C20AC
:10048000002C20002C20002C20004F7274686F6715
:100490006F6E616C697A6174696F6E002C20002C3C
:1004A000200041353A2020002C20002C200041342F
:1004B0003A2020002C20002C200041333A2020003C
:1004C0002C20002C200041323A2020002C20002C2F
:1004D000200041313A2020002C20002C2000413007
:1004E0003A2020004C696E656172697A6174696FA7
:1004F0006E004144432053706565643A20200041FA
:1005000044432073616D706C65733A202000414450
:100510004320426974733A202000414443205672BC
:1005200065663A2020002C20002C20004872656C63
:100530003A2020002C20002C20006D562F5672658A
:10054000662F4F653A2020002C20002C20004F659C
:100550002A567265662F563A2020002C20002C2047
:1005600000566F66663A2020002A43414C494252A9
:100570004154494F4E2A2A2A2A2A2A2A2A2A2A2A32
:100580002A00200053656E736F722049443A202080
:100590000000000000250028002B000404040404CF
:1005A0000404040202020202020303030303030120
:1005B00002040810204080010204081020010204F7
:1005C00008102000000008000201000003040700DA
:1005D0000000000000000000813211241FBECFEF98
:1005E000D8E0DEBFCDBF25E0A0E2B3E001C01D92A0
:1005F000AA3BB207E1F713E0A0E0B1E0ECE7FAE7CD
:1006000002C005900D92A032B107D9F712E0CDEEED
:10061000D2E004C02197FE010E94F539CC3ED107FB
:10062000C9F70E94D5190C943C3D0C940000CF9260
:10063000DF92EF92FF920F931F93CF93DF936C01A2
:100640007A018B01C0E0D0E0CE15DF0589F0D8013A
:100650006D918D01D601ED91FC910190F081E02D1D
:10066000C6010995892B11F47E0102C02196ECCFB9
:10067000C701DF91CF911F910F91FF90EF90DF9015
:10068000CF900895FC01538D448D252F30E0842FA9
:1006900090E0821B930B541710F0CF9608950197AA
:1006A0000895FC01918D828D981761F0828DDF0194
:1006B000A80FB11D5D968C91928D9F5F9F73928F55
:1006C00090E008958FEF9FEF0895FC01918D828D4A
:1006D000981731F0828DE80FF11D858D90E0089517
:1006E0008FEF9FEF0895FC01918D228D892F90E06F
:1006F000805C9F4F821B91098F739927089589EE23
:1007000094E00E94730321E0892B09F420E0822FFA
:100710000895FC01848DDF01A80FB11DA35ABF4FBE
:100720002C91848D90E001968F739927848FA689F0
:10073000B7892C93A089B1898C9180648C93938D17
:10074000848D981306C00288F389E02D80818F7D07
:1007500080830895EF92FF920F931F93CF93DF93BF
:10076000EC0181E0888F9B8D8C8D981305C0E88902
:10077000F989808185FD24C0F62E0B8D10E00F5F76
:100780001F4F0F731127E02E8C8DE8120CC00FB68F
:1007900007FCFACFE889F989808185FFF5CFCE0182
:1007A0000E948903F1CF8B8DFE01E80FF11DE35A02
:1007B000FF4FF0820B8FEA89FB898081806207C03E
:1007C000EE89FF896083E889F9898081806480836C
:1007D00081E090E0DF91CF911F910F91FF90EF901A
:1007E0000895CF93DF93EC01888D8823C9F0EA89BF
:1007F000FB89808185FD05C0A889B9898C9186FD1A
:100800000FC00FB607FCF5CF808185FFF2CFA88916
:10081000B9898C9185FFEDCFCE010E948903E7CF86
:10082000DF91CF91089580E090E0892B29F00E941C
:100830007F0381110C940000089585ED8093BC0026
:100840008091BC0084FDFCCF1092A40408954091D7
:100850002E04262F30E0240F311D21323105DCF427
:100860002091A4042430C9F4FC0180E090E08617B4
:1008700058F430912E042191DC01A45FBB4FA30FEB
:10088000B11D2C930196F3CF80912E04680F6093D5
:100890002E0480E0089581E0089582E0089508958F
:1008A000E0915D0480915C04E81730F4F0E0E25AD6
:1008B000FB4F808190E008958FEF9FEF0895909116
:1008C0005D0480915C04981750F4E92FF0E0E25A3F
:1008D000FB4F208130E09F5F90935D0402C02FEFBB
:1008E0003FEFC901089580915C0490E020915D0480
:1008F000821B91090895CF92DF92EF92FF920F939E
:100900001F93CF93DF937C01262F972F8A0180912D
:10091000A504882391F0C62FD72F6E01C40ED51ED3
:10092000CC15DD0571F06991D701ED91FC91019035
:10093000F081E02DC7010995F3CF642F822F0E942B
:100940002704C801DF91CF911F910F91FF90EF9085
:10095000DF90CF900895CF93DF931F92CDB7DEB78E
:1009600069832091A5042223D1F02091C80420326C
:1009700040F021E030E0FC013383228380E090E00E
:1009800015C08091A604E82FF0E0E955FB4F99814E
:1009900090838F5F8093A6048093C80405C061E0B4
:1009A000CE0101960E94270481E090E00F90DF9134
:1009B000CF910895089580E090E00895FC01E20F42
:1009C000F31F4083518362837383C90104960895A2
:1009D000CF93DF9300D000D0CDB7DEB769837A83A1
:1009E0008B839C83FE013196CE01059621E03081F8
:1009F000311101C020833196E817F907C1F76981E9
:100A00007A818B819C810F900F900F900F90DF91D6
:100A1000CF910895CF92DF92EF92FF920F931F93A1
:100A2000CF93DF936B017C0120E030E0A9010E94AD
:100A30006E39181624F0F7FAF094F7F8F09420E0E5
:100A400030E040E85FE3C701B6010E94CB3687FD86
:100A50002CC020E030E040E251E4C701B6010E9422
:100A6000CB3687FD25C020E030E048EC52E4C701DA
:100A7000B6010E94CB3687FD1EC020E030E04AE779
:100A800054E4C701B6010E94CB3687FD17C001E0D0
:100A900010E020E030E44CE156E4C701B6010E94CA
:100AA000CB3687FF00E0E8010BC0C5E0D0E008C00E
:100AB000C4E0D0E005C0C3E0D0E002C0C2E0D0E0B6
:100AC00080911A0190911B010E9754F420E030E0C0
:100AD00048EC52E4C701B6010E94CB3687FD21974E
:100AE000CE01DF91CF911F910F91FF90EF90DF909A
:100AF000CF9008950E94FB391F920F920FB60F926C
:100B000011242F933F934F935F936F937F938F9312
:100B10009F93AF93BF93EF93FF9389EE94E00E946E
:100B20008903FF91EF91BF91AF919F918F917F9139
:100B30006F915F914F913F912F910F900FBE0F904A
:100B40001F9018951F920F920FB60F9211242F939A
:100B50008F939F93EF93FF93E091F904F091FA0440
:100B60008081E091FF04F091000582FD12C0908128
:100B7000809102058F5F8F7320910305821751F0DA
:100B8000E0910205F0E0E751FB4F958F809302055D
:100B900001C08081FF91EF919F918F912F910F90D4
:100BA0000FBE0F901F9018953FB7F894809158048E
:100BB00090915904A0915A04B0915B0426B5A89B6A
:100BC00005C02F3F19F00196A11DB11D3FBFBA2FDF
:100BD000A92F982F8827820F911DA11DB11DBC013F
:100BE000CD0142E0660F771F881F991F4A95D1F704
:100BF00008958F929F92AF92BF92CF92DF92EF9221
:100C0000FF926B017C010E94D4054B015C01C11471
:100C1000D104E104F104F1F00E94D405DC01CB0120
:100C200088199909AA09BB09883E9340A105B10515
:100C300070F321E0C21AD108E108F10888EE880EAD
:100C400083E0981EA11CB11CC114D104E104F1047D
:100C500019F7DDCFFF90EF90DF90CF90BF90AF906E
:100C60009F908F9008954F925F926F927F928F9294
:100C70009F92AF92BF92CF92DF92EF92FF920E942B
:100C8000D4050E94D0364B015C014090480350903F
:100C9000490360904A0370904B0320E030E040E845
:100CA0005FE4C301B2010E9431379B01AC01C50171
:100CB000B4010E945A386B017C01209144033091A9
:100CC000450340914603509147030E94CB3687FF6E
:100CD0001EC020E030E040E85FE3C301B2010E94A3
:100CE0005A38609348037093490380934A03909362
:100CF0004B0320E030E040E85FE40E9431379B0185
:100D0000AC01C501B4010E945A386B017C01C0924C
:100D10004403D0924503E0924603F09247032091AA
:100D20004C0330914D0340914E0350914F03C70146
:100D3000B6010E9459382DEB37E346E855E30E948F
:100D40003137FF90EF90DF90CF90BF90AF909F90A2
:100D50008F907F906F905F904F9008951F920F92A9
:100D60000FB60F9211242F933F938F939F93AF93BE
:100D7000BF938091540490915504A0915604B09172
:100D800057043091530423E0230F2D3720F40196AC
:100D9000A11DB11D05C026E8230F0296A11DB11D9E
:100DA000209353048093540490935504A0935604C5
:100DB000B09357048091580490915904A0915A041B
:100DC000B0915B040196A11DB11D809358049093CE
:100DD0005904A0935A04B0935B04BF91AF919F91C3
:100DE0008F913F912F910F900FBE0F901F901895EC
:100DF0001F920F920FB60F9211242F933F934F9390
:100E00005F936F937F938F939F93AF93BF93EF9372
:100E1000FF938091B900887F803609F49CC068F503
:100E2000883209F45BC090F4803109F454C038F47E
:100E3000882309F4F6C0883009F44DC0F6C0883123
:100E400009F44CC0803209F45DC0EFC0803409F46D
:100E500068C048F4803309F455C0883309F0E5C010
:100E60008093A204D8C0803509F44FC0883509F4B6
:100E70005DC0883409F0D9C0D6C0883909F4C7C02C
:100E8000A8F4883709F467C038F4883609F463C0D9
:100E9000803709F460C0C9C0883809F4B8C0803907
:100EA00009F45FC0803809F0C0C05BC0803B09F422
:100EB00086C038F4803A09F466C0883A09F47FC0E5
:100EC000B4C0803C09F4A7C0883C09F4A4C0883BA6
:100ED00009F48AC0AAC080917F0410C09091A10437
:100EE0008091A004981770F5E091A10481E08E0F25
:100EF0008093A104F0E0E058FB4F80818093BB0019
:100F000085EC86C08093A2048EC0E091A10481E0AC
:100F10008E0F8093A1048091BB00F0E0E058FB4F5E
:100F200080839091A1048091A0046EC0E091A104FF
:100F300081E08E0F8093A1048091BB00F0E0E05827
:100F4000FB4F80838091A30481116DC081E0809369
:100F50007E0484EA61C083E08093A404109252046A
:100F6000CFCF80915204803208F051C0E0915204FA
:100F700081E08E0F809352048091BB00F0E0EE5C24
:100F8000FB4F8083BDCF85EC8093BC001092A404FE
:100F900080915204803230F4E0915204F0E0EE5C33
:100FA000FB4F10826091520470E0E0913004F091A8
:100FB000310482E394E009951092520436C084E033
:100FC0008093A40410922F0410922E04E0912C041C
:100FD000F0912D04099580912E04811105C081E0C6
:100FE00080932E0410920C04E0912F0481E08E0F68
:100FF00080932F04F0E0E45FFB4F80818093BB007F
:1010000090912F0480912E04981708F479CF85E8E9
:101010008093BC000AC085EC8093BC001092A404AD
:1010200004C01092A2040E941D04FF91EF91BF9191
:10103000AF919F918F917F916F915F914F913F9170
:101040002F910F900FBE0F901F901895AF92BF92E7
:10105000CF92DF92EF92FF920F931F93CF93DF9384
:101060001F92CDB7DEB75C017B018B016C0184E080
:10107000C80ED11CF80161918F01C50169830E94DE
:10108000F2376981681719F0C5010E94FA37FFEF3E
:10109000AF1ABF0AAC14BD0469F7C7010F90DF9106
:1010A000CF911F910F91FF90EF90DF90CF90BF9065
:1010B000AF900895AF92BF92CF92DF92EF92FF92DE
:1010C0000F931F93CF93DF931F92CDB7DEB75C01D1
:1010D0007B018B016C0184E0C80ED11CF801619189
:1010E0008F01C50169830E94F2376981681719F081
:1010F000C5010E94FA37FFEFAF1ABF0AAC14BD0456
:1011000069F7C7010F90DF91CF911F910F91FF9069
:10111000EF90DF90CF90BF90AF900895CF92DF9285
:10112000EF92FF920F931F93CF93DF93EB017B011D
:1011300024E0E20EF11C8B016C01C61AD70AC6012D
:10114000800F911F0E94F237F80181938F01EE15F5
:10115000FF05A9F7CE01DF91CF911F910F91FF906D
:10116000EF90DF90CF9008952F923F924F925F9231
:101170006F927F928F929F92AF92BF92CF92DF92A7
:10118000EF92FF920F931F93CF93DF93CDB7DEB70C
:1011900060970FB6F894DEBF0FBECDBF1C01C982A9
:1011A000DA82EB82FC820D831E832F833887498786
:1011B0005A876B877C8749805A806B807C808D80C2
:1011C0009E80AF80B884C984DA84EB84FC8420914B
:1011D00008013091090140910A0150910B01C301AE
:1011E000B2010E9431376D877E878F87988B20915F
:1011F0003403309135034091360350913703C501D4
:10120000B4010E9431379B01AC016D857E858F85CD
:1012100098890E945A386D877E878F87988B209196
:101220003003309131034091320350913303C701B1
:10123000B6010E9431379B01AC016D857E858F859B
:1012400098890E945A38F101608371838283938365
:1012500020912C0330912D0340912E0350912F03A8
:10126000C301B2010E9431376D877E878F87988BCB
:101270002091040130910501409106015091070130
:10128000C501B4010E9431379B01AC016D857E859B
:101290008F8598890E945A386D877E878F87988BB3
:1012A000209128033091290340912A0350912B0368
:1012B000C701B6010E9431379B01AC016D857E8567
:1012C0008F8598890E945A38F101648375838683DB
:1012D0009783209124033091250340912603509158
:1012E0002703C301B2010E9431372B013C01209139
:1012F0002003309121034091220350912303C50123
:10130000B4010E9431379B01AC01C301B2010E94BC
:101310005A384B015C01209100013091010140914C
:10132000020150910301C701B6010E9431379B01B0
:10133000AC01C501B4010E945A38F1016087718780
:1013400082879387C10160960FB6F894DEBF0FBE07
:10135000CDBFDF91CF911F910F91FF90EF90DF9064
:10136000CF90BF90AF909F908F907F906F905F9045
:101370004F903F902F900895E0EBF3E080E281934F
:1013800093E0E23EF907D9F7E9ECF4E080E28193DB
:1013900094E0E93EF907D9F70895CF93DF9384E805
:1013A00095E00E946A14C8E2D0E0CE010E94F237B4
:1013B0008F77219690EE980F9F3510F40E943C1382
:1013C000C834D10591F782E895E00E94E014DF91DE
:1013D000CF910C94BC09CF93DF9300D000D0CDB750
:1013E000DEB789E695E00E94E01481E695E00E9470
:1013F0006A1460915003709151038091520390914F
:10140000530346E050E00E94EE148EE595E00E9402
:101410006A14609154037091550380915603909122
:10142000570346E050E00E94EE148BE595E00E94E1
:101430006A14609158037091590380915A039091F6
:101440005B0346E050E00E945C148EE495E00E944D
:101450006A1460915C0370915D0380915E039091CA
:101460005F0346E050E00E94EE148BE495E00E949A
:101470006A1460916003709161038091620390919E
:10148000630346E050E00E94EE1488E495E00E9479
:101490006A14609164037091650380916603909172
:1014A000670346E050E00E945C148AE395E00E94E6
:1014B0006A1420915C0330915D0340915E0350916A
:1014C0005F0360E070E08AE794E40E94C63846E07B
:1014D00050E00E94EE1487E395E00E946A14209188
:1014E000600330916103409162035091630360E0B7
:1014F00070E08AE794E40E94C63846E050E00E941B
:10150000EE1484E395E00E946A1420916403309104
:101510006503409166035091670360E070E08AE7DD
:1015200094E40E94C63846E050E00E945C148CE2CD
:1015300095E00E946A146091AC057091AD058091B0
:10154000AE059091AF0546E050E00E94EE1489E2AE
:1015500095E00E946A146091B0057091B105809188
:10156000B2059091B30546E050E00E94EE1486E289
:1015700095E00E946A146091B4057091B505809160
:10158000B6059091B70546E050E00E945C148AE1F0
:1015900095E00E946A1446E050E060E070E080E868
:1015A00090E40E945C148EE095E00E946A146AE068
:1015B00070E080911A0190911B010E94CD148FEF71
:1015C00094E00E946A146AE070E0809118019091A2
:1015D00019010E94CD1482EF94E00E946A146AE01F
:1015E00070E084E090E00E94CD1484EE94E00E94CC
:1015F000E0148EED94E00E946A146091980370915B
:10160000990380919A0390919B0346E050E00E94D9
:10161000EE148BED94E00E946A1460918003709147
:101620008103809182039091830346E050E00E9401
:10163000EE1488ED94E00E946A1460916803709142
:10164000690380916A0390916B0346E050E00E9429
:101650005C1482ED94E00E946A1460919C03709186
:101660009D0380919E0390919F0346E050E00E946D
:10167000EE148FEC94E00E946A14609184037091E0
:101680008503809186039091870346E050E00E9495
:10169000EE148CEC94E00E946A1460916C037091DB
:1016A0006D0380916E0390916F0346E050E00E94BD
:1016B0005C1486EC94E00E946A146091A00370911F
:1016C000A1038091A2039091A30346E050E00E9401
:1016D000EE1483EC94E00E946A1460918803709188
:1016E000890380918A0390918B0346E050E00E9429
:1016F000EE1480EC94E00E946A1460917003709183
:101700007103809172039091730346E050E00E9450
:101710005C148AEB94E00E946A146091A4037091B7
:10172000A5038091A6039091A70346E050E00E9494
:10173000EE1487EB94E00E946A1460918C03709120
:101740008D0380918E0390918F0346E050E00E94BC
:10175000EE1484EB94E00E946A146091740370911B
:101760007503809176039091770346E050E00E94E4
:101770005C148EEA94E00E946A146091A803709150
:10178000A9038091AA039091AB0346E050E00E9428
:10179000EE148BEA94E00E946A14609190037091B9
:1017A0009103809192039091930346E050E00E9450
:1017B000EE1488EA94E00E946A14609178037091B4
:1017C000790380917A0390917B0346E050E00E9478
:1017D0005C1482EA94E00E946A146091AC037091F8
:1017E000AD038091AE039091AF0346E050E00E94BC
:1017F000EE148FE994E00E946A1460919403709152
:101800009503809196039091970346E050E00E94E3
:10181000EE148CE994E00E946A1460917C0370914C
:101820007D0380917E0390917F0346E050E00E940B
:101830005C148AE894E00E94E014609108017091C1
:10184000090180910A0190910B0146E050E00E944D
:10185000EE1487E894E00E946A146091340370915A
:101860003503809136039091370346E050E00E94A3
:10187000EE1484E894E00E946A1460913003709141
:101880003103809132039091330346E050E00E948F
:101890005C1460912C0370912D0380912E03909124
:1018A0002F0346E050E00E94EE1481E894E00E948D
:1018B0006A14609104017091050180910601909174
:1018C000070146E050E00E94EE148EE794E00E948B
:1018D0006A14609128037091290380912A039091E2
:1018E0002B0346E050E00E945C1460912403709149
:1018F0002503809126039091270346E050E00E9443
:10190000EE148BE794E00E946A14609120037091BA
:101910002103809122039091230346E050E00E942E
:10192000EE1488E794E00E946A14609100017091BF
:101930000101809102019091030146E050E00E9474
:101940005C148CE694E00E946A14BE016F5F7F4FC6
:1019500080E090E00E948E0820E030E040E85FE305
:1019600069817A818B819C810E94CB36811103C071
:1019700086E694E002C08CE594E00E946A1489E552
:1019800094E00E946A14BE016F5F7F4F88E790E089
:101990000E948E0820E030E040E85FE369817A81B0
:1019A0008B819C810E94CB36811103C083E594E03A
:1019B00002C089E494E00E946A1486E494E00E94E4
:1019C0006A14BE016F5F7F4F80EA90E00E948E082C
:1019D00020E030E040E85FE369817A818B819C817F
:1019E0000E94CB36811103C080E494E002C086E3FC
:1019F00094E00E94E0148AE294E00E946A14BE011E
:101A00006F5F7F4F8CE090E00E948E0820E030E016
:101A100040E85FE369817A818B819C810E94CB36AB
:101A2000811103C084E294E002C08AE194E00E9444
:101A30006A1487E194E00E946A14BE016F5F7F4FD1
:101A400084E890E00E948E0820E030E040E85FE308
:101A500069817A818B819C810E94CB36811103C080
:101A600081E194E002C087E094E00E946A1484E07F
:101A700094E00E946A14BE016F5F7F4F8CEA90E091
:101A80000E948E0820E030E040E85FE369817A81BF
:101A90008B819C810E94CB36811103C08EEF93E035
:101AA00002C084EF93E00E94E01486EE93E00E946F
:101AB0006A14BE016F5F7F4F88EC90E00E948E0831
:101AC00020E030E040E85FE369817A818B819C818E
:101AD0000E94CB36811103C080EE93E002C086EDF8
:101AE00093E00E94E0140E94CD0982EC93E00E94F2
:101AF0006A148EED91E00E94F01489EA93E00E944E
:101B0000E0140E94BC0968EE73E080E090E00E945F
:101B1000F9050F900F900F900F90DF91CF910895DE
:101B20008F929F92AF92BF92CF92DF92EF92FF92ED
:101B3000CF93DF93F82EE92E4A015B0181E0809379
:101B4000A504F092C7041092A6041092C8049091C4
:101B50005C0480915D04981729F086E895E00E9466
:101B60005F04F5CF62E070E08F2D9E2D0E94D915A5
:101B70008FE090E00197F1F790915C0480915D0413
:101B8000981759F086E895E00E945F04D82F86E800
:101B900095E00E945F04C82FEFCF0E94FE14BE01A3
:101BA000DD0F880B990B0E94D2366B017C01C501B9
:101BB000B4010E943839CB0102978F30910560F44F
:101BC000880F991F880F991FFC01E05DFE4F60810F
:101BD00071818281938104C06FE672E183E099E3B1
:101BE00020E030E040E85EE30E9431379B01AC0129
:101BF000C701B6010E943137DF91CF91FF90EF907E
:101C0000DF90CF90BF90AF909F908F9008952F92CC
:101C10003F924F925F926F927F928F929F92AF927C
:101C2000BF92CF92DF92EF92FF920F931F93CF93C9
:101C3000DF93CDB7DEB766970FB6F894DEBF0FBE61
:101C4000CDBF9E878D870E94D405698B7A8B8B8B45
:101C50009C8BA12CB12CC12CD12C760103E210E07D
:101C600060912A0170912B0180912C0190912D019E
:101C70000E943839072E000C880B990B0E94D2362F
:101C8000AB01BC018D859E850E94900DF8013197B6
:101C9000F1F720E034E244E759E40E9431379B0138
:101CA000AC01C701B6010E945A386B017C012FEFCD
:101CB000A21AB20A3DE7A316B10491F620E030E083
:101CC0004AEF52E40E94C6384B015C01412C512C72
:101CD0003201C12CD12C7601312C212C1E8A1D8A77
:101CE0000E94D405DC01CB0129893A894B895C89A2
:101CF000821B930BA40BB50B803F9944A240B10506
:101D000008F0C0C048E8441643E154066104710479
:101D100009F4B8C0D301C2010196A11DB11D8D8384
:101D20009E83AF83B887C301B2010E94D236698710
:101D30007A878B879C8760912A0170912B01809113
:101D40002C0190912D010E943839072E000C880B30
:101D5000990B0E94D236AB01BC018D859E850E94F5
:101D6000900D2B013C0183E290E00197F1F72DECFF
:101D70003CEC4CEC5DE3C501B4010E9431374B01F2
:101D80005C0126E636E646E65FE3C301B2010E9447
:101D9000313720E034E244E759E40E943137A501AD
:101DA00094010E945A384B015C016D817E818F81C4
:101DB00098850E94D23669837A838B839C83298598
:101DC0003A854B855C85632D722D8E899D890E9495
:101DD000313729813A814B815C810E94C6382B01C1
:101DE0003C0129813A814B815C81C501B4010E948B
:101DF000C6389B01AC01C301B2010E945A388B0165
:101E00008F87988BA7019601C701B6010E943137D1
:101E100029853A854B855C850E9431376B017C01B1
:101E200098014F855889C501B4010E9459382B018A
:101E30003C01232D322D4E895D89C501B4010E94DC
:101E400059389B01AC01C301B2010E9431379B019B
:101E5000AC01C701B6010E945A3829813A814B81F1
:101E60005C810E94C6380E9479396B017C014D80EB
:101E70005E806F807884302E212E9F859E8BA8896E
:101E8000AD8B2ECF20E030E0A901C701B6010E9442
:101E9000CB3687FD09C020E034E244E759E4C701AE
:101EA000B6010E94C63803C060E070E0CB016696C0
:101EB0000FB6F894DEBF0FBECDBFDF91CF911F915B
:101EC0000F91FF90EF90DF90CF90BF90AF909F90D9
:101ED0008F907F906F905F904F903F902F900895DC
:101EE0002F923F924F925F926F927F928F929F922A
:101EF000AF92BF92CF92DF92EF92FF920F931F9318
:101F0000CF93DF9300D0CDB7DEB78C017A8369839E
:101F1000CBA0DCA0EDA0FEA08FA098A4A9A4BAA499
:101F20004BA45CA46DA47EA489E490E00E94070EFB
:101F3000A70196010E94313720E030E0A9010E94FC
:101F40006E3918164CF489E490E00E94070EA70140
:101F500096010E94313709C089E490E00E94070E83
:101F6000A70196010E9431379058F8016083718370
:101F7000828393838BE490E00E94070EA501940175
:101F80000E94313720E030E0A9010E946E39181616
:101F90004CF48BE490E00E94070EA50194010E948E
:101FA000313709C08BE490E00E94070EA50194012F
:101FB0000E9431379058F801648375838683978334
:101FC00088E490E00E94070EA30192010E9431373D
:101FD00020E030E0A9010E946E3918164CF488E424
:101FE00090E00E94070EA30192010E94313709C0C0
:101FF00088E490E00E94070EA30192010E9431370D
:102000009058F801608771878287938722242394F0
:10201000312C89819A81281639060CF091C089E407
:1020200090E00E94070EA70196010E94313720E040
:1020300030E0A9010E946E3918164CF489E490E052
:102040000E94070EA70196010E94313709C089E45A
:1020500090E00E94070EA70196010E943137905828
:102060009B01AC01F80160817181828193810E94A2
:102070005A38F80160837183828393838BE490E004
:102080000E94070EA50194010E94313720E030E044
:10209000A9010E946E3918164CF48BE490E00E945E
:1020A000070EA50194010E94313709C08BE490E02E
:1020B0000E94070EA50194010E94313790589B01A0
:1020C000AC01F80164817581868197810E945A383C
:1020D000F801648375838683978388E490E00E9487
:1020E000070EA30192010E94313720E030E0A901E0
:1020F0000E946E3918164CF488E490E00E94070E96
:10210000A30192010E94313709C088E490E00E9447
:10211000070EA30192010E94313790589B01AC0138
:10212000F80160857185828593850E945A38F8018F
:102130006087718782879387FFEF2F1A3F0A69CFE5
:10214000BC011816190614F061E070E061307105E9
:1021500081F1072E000C880B990B0E94D2366B017F
:102160007C019B01AC01F8016081718182819381C6
:102170000E94C638F8016083718382839383A7012C
:10218000960164817581868197810E94C638F80125
:102190006483758386839783A70196016085718523
:1021A000828593850E94C638F8016087718782878F
:1021B0009387C8010F900F90DF91CF911F910F91DE
:1021C000FF90EF90DF90CF90BF90AF909F908F9057
:1021D0007F906F905F904F903F902F9008954F9217
:1021E0005F926F927F928F929F92AF92BF92CF92A7
:1021F000DF92EF92FF92CF93DF93CDB7DEB76B0103
:102200007C012D893E894F89588D0E94313729895B
:102210003A894B895C890E945A382B013C01A701FD
:102220009601C701B6010E9431374B015C01298D2F
:102230003A8D4B8D5C8D0E9431379B01AC01C301FF
:10224000B2010E945A382B013C01A7019601C50139
:10225000B4010E9431374B015C012D8D3E8D4F8DB5
:1022600058A10E9431379B01AC01C301B2010E9409
:102270005A382B013C01A7019601C501B4010E9407
:1022800031374B015C0129A13AA14BA15CA10E940D
:1022900031379B01AC01C301B2010E945A382B01B6
:1022A0003C01A7019601C501B4010E9431372DA15F
:1022B0003EA14FA158A50E9431379B01AC01C3013B
:1022C000B2010E945A386B017C0120E030E040EA04
:1022D0005FE30E946E3918168CF020E030E040EA8F
:1022E0005FEBC701B6010E94CB3687FF0DC0C12C42
:1022F000D12C90EAE92E9FEBF92E06C0C12CD12CEF
:1023000080EAE82E8FE3F82EC701B601DF91CF9166
:10231000FF90EF90DF90CF90BF90AF909F908F9005
:102320007F906F905F904F9008952F923F924F92C1
:102330005F926F927F928F929F92AF92BF92CF9255
:10234000DF92EF92FF920F931F93CF93DF93CDB75E
:10235000DEB72C970FB6F894DEBF0FBECDBF1C01C1
:10236000C982DA82EB82FC820D831E832F83388739
:1023700049875A876B877C874090100150901101E4
:102380006090120170901301C0900C01D0900D016B
:10239000E0900E01F0900F0108E313E029813A81EB
:1023A0004B815C81C301B2010E9431374B015C015A
:1023B000F8012081318142815381C701B6010E9419
:1023C00031379B01AC01C501B4010E945A38F801B4
:1023D00060837183828393832D813E814F815885F1
:1023E000C301B2010E9431374B015C01F801248125
:1023F000358146815781C701B6010E9431379B0163
:10240000AC01C501B4010E945A38F8016483758398
:102410008683978329853A854B855C85C301B20104
:102420000E9431372B013C01F8012085318542851E
:102430005385C701B6010E9431379B01AC01C3012E
:10244000B2010E945A38F8016087718782879387AA
:102450008CE0D10101900D928A95E1F7C1012C9693
:102460000FB6F894DEBF0FBECDBFDF91CF911F91A5
:102470000F91FF90EF90DF90CF90BF90AF909F9023
:102480008F907F906F905F904F903F902F90089526
:102490004F925F926F927F92AF92BF92CF92DF92F4
:1024A000EF92FF920F931F93CF93DF93CDB7DEB7D9
:1024B000E5970FB6F894DEBF0FBECDBF6EA77FA71E
:1024C00088AB99AB29013A01EAAAFBAA0CAB1DAB78
:1024D0001982CE0101967C01CA94CD28A9F5AA944F
:1024E000AB2859F40E9433060E94E80469837A837A
:1024F0008B839C8304E010E002C000E010E06EA536
:102500007FA588A999A90E94E8049801AB01BC01A4
:10251000C7010E94DE048C01C301B2010E94E804DD
:102520009801AB01BC01C7010E94DE048C016AA9BD
:102530007BA98CA99DA90E94E8049801AB01BC016C
:10254000C7010E94DE045DC0AA94AB2861F40E941A
:102550003306870123E040E00E94C33262E173E06A
:10256000C7010E94083AF70101900020E9F731976E
:102570008F010E191F096EA57FA588A999A90E9430
:102580000A050E0D1F1D282F40E06EA57FA588A906
:1025900099A90E94C33262E173E0C7010E94083A20
:1025A000F70101900020E9F731978F010E191F09FB
:1025B000C301B2010E940A050E0D1F1D282F40E025
:1025C000C301B2010E94C33262E173E0C7010E94FD
:1025D000083AF70101900020E9F731978F010E19B1
:1025E0001F096AA97BA98CA99DA90E940A050E0D45
:1025F0001F1D282F40E06AA97BA98CA99DA90E94D4
:10260000C332C7010E94F01489EE94E00E94F103E6
:10261000E5960FB6F894DEBF0FBECDBFDF91CF9128
:102620001F910F91FF90EF90DF90CF90BF90AF90F0
:102630007F906F905F904F900895E9ECF4E08EE208
:1026400090819C3209F48083319694E0ED3DF90746
:10265000B9F70895009769F0FC0101900020E9F7AF
:102660003197AF01481B590BBC0189EE94E00C94E3
:10267000170380E090E00895E091E904F091EA0406
:102680000190F081E02D682F89EE94E009948F92FB
:102690009F92AF92BF920F931F93CF93DF93CDB7CB
:1026A000DEB7A1970FB6F894DEBF0FBECDBF19A25B
:1026B000423008F44AE08E010F5D1F4F842E912CAA
:1026C000A12CB12CA50194010E94D339E62FB901A8
:1026D000CA0101501109EA3014F4E05D01C0E95C5F
:1026E000D801EC93232B242B252B61F7C8010E94E2
:1026F0002A13A1960FB6F894DEBF0FBECDBFDF91AF
:10270000CF911F910F91BF90AF909F908F900895A0
:102710004F925F926F927F928F929F92AF92BF92F1
:10272000CF92DF92EF92FF926B017C01B42E9B015E
:10273000AC010E94B939882319F084E193E027C0E5
:1027400026013701E89477F82FEF3FEF4FE75FE777
:10275000C301B2010E94B93981110DC02FEF3FEFC3
:102760004FE75FE7C301B2010E94CB3618161CF495
:1027700088E193E00CC02FEF3FEF4FE75FE4C70124
:10278000B6010E946E39181684F48CE193E0FF9034
:10279000EF90DF90CF90BF90AF909F908F907F9001
:1027A0006F905F904F900C942A132FEF3FEF4FE7FD
:1027B0005FECC701B6010E94CB3687FDE6CF20E073
:1027C00030E0A901C701B6010E94CB3687FF09C0DE
:1027D0008DE20E943C134C01F7FAF094F7F8F09464
:1027E00002C0812C912CA12C60E070E080E09FE37E
:1027F000AB1441F020E030E040E251E40E94C638E2
:10280000A394F6CF9B01AC01C701B6010E945A38D0
:102810002B013C010E943F396B017C010E94D036A4
:102820009B01AC01C301B2010E9459382B013C014C
:102830004AE0C701B6010E9447137C01E80CF91C6D
:10284000BB2029F08EE20E943C13E80EF91EDB2C1F
:10285000DD2021F120E030E040E251E4C301B2018B
:102860000E9431372B013C010E943F394B01A12CC2
:10287000B12C4AE0C501B4010E944713E80EF91ECD
:10288000C501B4010E94D0369B01AC01C301B20165
:102890000E9459382B013C01DA94DACFC701FF902E
:1028A000EF90DF90CF90BF90AF909F908F907F90F0
:1028B0006F905F904F900895CF93DF930E9488139D
:1028C000EC0186EE92E00E942A138C0F9D1FDF918F
:1028D000CF9108950F931F93CF93DF938C01C0E0A6
:1028E000D0E0F801EC0FFD1F6491662371F0E091D8
:1028F000E904F091EA040190F081E02D89EE94E082
:102900000995892B11F02196ECCFCE01DF91CF9163
:102910001F910F910895CF92DF92EF92FF92CF9384
:10292000DF936B017C014115510581F4E091E904CD
:10293000F091EA040190F081E02D89EE94E0DF91BE
:10294000CF91FF90EF90DF90CF9009944A305105DE
:10295000D1F497FF17C08DE20E943C13EC0166276B
:102960007727CB016C197D098E099F094AE00E94E7
:1029700047138C0F9D1FDF91CF91FF90EF90DF9059
:10298000CF9008954AE0C701B601DF91CF91FF9043
:10299000EF90DF90CF900C944713CF93DF93AB0170
:1029A000BC01990F880B990B0E948B14EC0186EEE9
:1029B00092E00E942A138C0F9D1FDF91CF91089502
:1029C000CF93DF930E946A14EC0186EE92E00E949E
:1029D0002A138C0F9D1FDF91CF9108950C948813BB
:1029E000CF93DF930E942A13EC0186EE92E00E94BF
:1029F0002A138C0F9D1FDF91CF9108952091C80459
:102A00009091C704213208F04AC08091A40481113A
:102A1000FCCF32E03093A40431E03093A3043FEFC5
:102A20003093A2041092A1042093A004A7EAB4E07A
:102A300040E854E0FA013E2F341B321718F43D9160
:102A40003193F9CF10927F0420917F04990F922B3C
:102A500090937F0490917E04913061F410927E04F3
:102A600090917F049093BB009091BC0093FDF8CFB0
:102A700095EC01C095EE9093BC009091A404923027
:102A8000E1F39091A2049F3F79F08091A2048032FB
:102A900041F08091A204803331F084E005C081E0F0
:102AA00003C082E001C083E01092A6041092C80423
:102AB0001092A5040895CF93DF93625071096F308F
:102AC000710528F4FB01E555FE4FD08101C0D2E02D
:102AD000C1E0C093A5048093C7041092A60410928D
:102AE000C80461E086E895E00E94AB046D2F86E89B
:102AF00095E00E94AB0463EE86E895E00E94AB048B
:102B00000E94FE14C093A5041092A6041092C8045B
:102B100060E086E895E00E94AB04DF91CF910C94D1
:102B2000FE1490E0FC01ED53FA4F2491FC01E155B5
:102B3000FA4F3491FC01E556FA4FE491EE23B1F1DE
:102B4000222339F1233091F038F42130A9F02230DA
:102B500001F584B58F7D12C0273091F02830A1F0A7
:102B60002430B9F4809180008F7D03C08091800073
:102B70008F77809380000DC084B58F7784BD09C0A6
:102B80008091B0008F7703C08091B0008F7D8093DB
:102B9000B000F0E0EE0FFF1FEF56FA4FA591B49191
:102BA0008FB7F894EC913E2B3C938FBF08950C9413
:102BB0002A139091A4049111FCCF613208F060E2D5
:102BC00091E09093A4049093A3042FEF2093A20488
:102BD0001092A104260F2093A00490937F0490915B
:102BE0007F04880F892B80937F0480917E0481303D
:102BF00061F410927E0480917F048093BB008091E9
:102C0000BC0083FDF8CF85EC01C085EE8093BC004D
:102C10008091A4048130E1F38091A104861710F41F
:102C20006091A104A0E8B4E02EE534E0F9018E2F14
:102C3000821B861718F48D918193F9CF10925D0451
:102C400060935C04862F08952F923F924F925F927B
:102C50006F927F928F929F92AF92BF92CF92DF92AC
:102C6000EF92FF920F931F93CF93DF93CDB7DEB711
:102C7000A9970FB6F894DEBF0FBECDBF1C0178A395
:102C80006F8F8A01072E000C880B990B0E94D23699
:102C90009B01AC0160E070E080E89FE30E94C638D1
:102CA000698B7A8B8B8B9C8BD1011D921D921D920F
:102CB0001C921397F10114821582168217821896BE
:102CC0001D921D921D921C921B971E8A1D8AF8014F
:102CD0003D97FAA3E9A3CF01880F991F880F991F89
:102CE0009C012D563E4F3CA32BA3AC0145585E4F93
:102CF0005EA34DA32D893E894F8D58A1241735071A
:102D00000CF0D2C189A19AA10697A8F4ABA1BCA1ED
:102D10002D913D914D915C91298F3A8F4B8F5C8F16
:102D2000ADA1BEA12D913D914D915C912D873E8726
:102D30004F87588B0CC020E030E040E85FE32D87E0
:102D40003E874F87588B298F3A8F4B8F5C8F1D8220
:102D50001E821F82188619861A861B861C86198277
:102D60001A821B821C82188E1F8AAF89B88DBD0102
:102D7000BB0F880B990B0E94D236298D3A8D4B8D53
:102D80005C8D0E94CB3687FF20C160912A01709133
:102D90002B0180912C0190912D010E9438392091B6
:102DA000AA053091AB05A9014150510945305105A3
:102DB000C0F4FA01EA58FE4FA0800A2C000CBB08B0
:102DC000FA01EF58FE4F0081002E000C110BFA01A2
:102DD000E459FE4F4081A42F440FBB0BBE8FAD8F33
:102DE00009C0E8E4F0E0FE8FED8F0BE410E089E429
:102DF000A82EB12C072E000C880B990B2FA338A7F7
:102E00000E94D2366B017C01AB01BC01C5010E945E
:102E1000900D4B01A82E99A783E290E00197F1F75E
:102E2000B701A601C8010E94900D2B013C0183E26D
:102E300090E00197F1F7B701A6018D8D9E8D0E945C
:102E4000900DE3E2F0E03197F1F72FA138A52330A0
:102E5000310559F17CF421303105D9F022303105AA
:102E6000D9F5F62E072F182F9D8FB82CC92CDA2CE8
:102E7000E9A418C02430310511F12530310561F580
:102E8000F42C052D162D7D8EB82CC92CDA2CE9A436
:102E90001FC0F82C092D1A2D29A52D8FB62EC72E4F
:102EA000D82EE92E4201A62C20C0F82C092D1A2D6F
:102EB00039A53D8FB42CC52CD62CE72C09C0F42C99
:102EC000052D162D7D8EB62EC72ED82EE92E0CC0C0
:102ED0004B01A82E792E09C0F62E072F182F9D8F93
:102EE000B42CC52CD62CE72C79A420912601309146
:102EF00027014091280150912901B4018A2D972D75
:102F00000E9431372B013C01209122013091230195
:102F100040912401509125016B2D7C2D8D2D9E2DEE
:102F20000E9431374B015C0120911E0130911F013D
:102F300040912001509121016F2D702F812F9D8D87
:102F40000E9431376B017C018091AA059091AB05FD
:102F50000196863091052CF49093AB058093AA05D9
:102F600004C01092AB051092AA05A30192016981D9
:102F70007A818B819C810E945A383B018C01A5018A
:102F8000940169857A858B859C850E945A385B01FE
:102F9000982E892EA70196016D817E818F8198855B
:102FA0000E945A384F89588D4F5F5F4F588F4F8B13
:102FB00069827A820B831C83A986BA869B868C865B
:102FC0006D837E838F839887D0CE20E030E040E809
:102FD0005FE3698D7A8D8B8D9C8D0E946E391816FA
:102FE00054F52D853E854F85588969817A818B817D
:102FF0009C810E94313769837A838B839C832D85E2
:103000003E854F85588969857A858B859C850E9488
:10301000313769877A878B879C872D853E854F85D9
:1030200058896D817E818F8198850E9431376D83AB
:103030007E838F83988729813A814B815C81F1015E
:1030400060817181828193810E945A38D1016D9390
:103050007D938D939C93139729853A854B855C8549
:1030600014966D917D918D919C9117970E945A387D
:10307000F10164837583868397832D813E814F811F
:10308000588560857185828593850E945A38D10163
:1030900018966D937D938D939C931B97ED89FE8974
:1030A0003196FE8BED8B26CE29893A894B895C8936
:1030B000D1016D917D918D919C910E943137F101EB
:1030C000608371838283938329893A894B895C89E0
:1030D00064817581868197810E943137D101149670
:1030E0006D937D938D939C93179729893A894B898A
:1030F0005C8918966D917D918D919C911B970E9492
:103100003137F1016087718782879387C101A99662
:103110000FB6F894DEBF0FBECDBFDF91CF911F91E8
:103120000F91FF90EF90DF90CF90BF90AF909F9066
:103130008F907F906F905F904F903F902F90089569
:103140004F925F926F927F928F929F92AF92BF92B7
:10315000CF92DF92EF92FF920F931F93CF93DF9363
:10316000CDB7DEB764970FB6F894DEBF0FBECDBF04
:103170008C01E396CCACDDACEEACFFACE397E7960C
:103180004CAC5DAC6EAC7FACE797EB968CAD9DAD77
:10319000AEADBFADEB978D879E87AF87B88BCE0165
:1031A00001960E94241669817A818B819C818D8091
:1031B0009E80AF80B88429853A854B855C85298BB4
:1031C0003A8B4B8B5C8B20912E0130912F0121305B
:1031D000310509F067C0A70196010E9459384DB723
:1031E0005EB7485151090FB6F8945EBF0FBE4DBF90
:1031F000ADB7BEB7119628E1FE01B79601900D92CA
:103200002A95E1F70E94EF100FB6F894DEBF0FBECB
:10321000CDBF6B017C01A3019201C501B4010E94E5
:103220005938EDB7FEB778970FB6F894FEBF0FBECA
:10323000EDBFADB7BEB7119628E1FE01FF96019034
:103240000D922A95E1F70E94EF100FB6F894DEBFB9
:103250000FBECDBF4B015C012D853E854F85588942
:1032600069897A898B899C890E9459384DB75EB7E4
:10327000485151090FB6F8945EBF0FBE4DBFADB7B0
:10328000BEB7119628E1FE01E95AFF4F01900D9259
:103290002A95E1F70E94EF100FB6F894DEBF0FBE3B
:1032A000CDBF18C0A70196010E9459386B017C015F
:1032B000A3019201C501B4010E9459384B015C0180
:1032C0002D853E854F85588969897A898B899C89A6
:1032D0000E9459382B013C01EF962CAD3DAD4EAD0F
:1032E0005FADEF97C701B6010E9431372091AC0561
:1032F0003091AD054091AE055091AF050E9459380F
:10330000F8016083718382839383C158DF4F2881E2
:1033100039814A815B81CF57D040C501B4010E94F9
:1033200031372091B0053091B1054091B2055091EF
:10333000B3050E945938D80114966D937D938D93EF
:103340009C931797CD57DF4F288139814A815B8144
:10335000C358D040C301B2010E9431372091B40557
:103360003091B5054091B6055091B7050E94593886
:10337000F8016087718782879387C80164960FB6CA
:10338000F894DEBF0FBECDBFDF91CF911F910F919B
:10339000FF90EF90DF90CF90BF90AF909F908F9075
:1033A0007F906F905F904F900895CF93DF93CDB74C
:1033B000DEB7C756D1090FB6F894DEBF0FBECDBF3A
:1033C000789484B5826084BD84B5816084BD85B500
:1033D000826085BD85B5816085BD80916E0081600C
:1033E00080936E00109281008091810082608093B2
:1033F00081008091810081608093810080918000B4
:103400008160809380008091B10084608093B100DE
:103410008091B00081608093B00080917A008460D8
:1034200080937A0080917A00826080937A00809104
:103430007A00816080937A0080917A00806880931E
:103440007A001092C100E091F904F091FA0482E050
:103450008083E091F504F091F6041082E091F70486
:10346000F091F80480E1808310920105E091FD0461
:10347000F091FE0486E08083E091FB04F091FC046F
:10348000808180618083E091FB04F091FC04808165
:1034900088608083E091FB04F091FC048081806867
:1034A0008083E091FB04F091FC0480818F7D808318
:1034B00064E170E080E090E00E94F9058EED91E01B
:1034C0000E94F01410925003109251031092520374
:1034D0001092530310925403109255031092560306
:1034E00010925703109258031092590310925A03E6
:1034F00010925B0380E090E0A8ECB2E480935C0360
:1035000090935D03A0935E03B0935F038093600389
:1035100090936103A0936203B09363038093640369
:1035200090936503A0936603B093670386EF91E0E1
:103530000E94D71543E050E060E070E080E890E43E
:103540000E94EE148DEF91E00E94F014BE01635DC5
:103550007F4F80E090E00E948E0820E030E040E85D
:103560005FE36DA57EA58FA598A90E94CB3681113A
:103570000FC060E573E084E090E00E948E086CE587
:1035800073E088E090E00E948E0880E092E002C044
:103590008CE092E00E94F014BE01635D7F4F88E7EB
:1035A00090E00E948E0820E030E040E85FE36DA5E7
:1035B0007EA58FA598A90E94CB3681110CC064E529
:1035C00073E08CE790E00E948E0860E673E080E88C
:1035D00090E00E948E08BE01635D7F4F80EA90E01C
:1035E0000E948E0820E030E040E85FE36DA57EA5F4
:1035F0008FA598A90E94CB3681110CC068E573E0B5
:1036000084EA90E00E948E0864E673E088EA90E025
:103610000E948E08109298031092990310929A03B8
:1036200010929B0380E090E0A0E8BFE380939C03AE
:1036300090939D03A0939E03B0939F031092A003C9
:103640001092A1031092A2031092A3031092A4035C
:103650001092A5031092A6031092A7031092A8033C
:103660001092A9031092AA031092AB031092AC031C
:103670001092AD031092AE031092AF03109280032C
:10368000109281031092820310928303809384032B
:1036900090938503A0938603B093870310928803C9
:1036A0001092890310928A0310928B0310928C035C
:1036B00010928D0310928E0310928F03109290033C
:1036C000109291031092920310929303109294031C
:1036D000109295031092960310929703109268032C
:1036E0001092690310926A0310926B0380936C032B
:1036F00090936D03A0936E03B0936F0310927003C9
:10370000109271031092720310927303109274035B
:10371000109275031092760310927703109278033B
:103720001092790310927A0310927B0310927C031B
:1037300010927D0310927E0310927F03BE01635DA1
:103740007F4F8CE090E00E948E08CDA4DEA4EFA411
:10375000F8A8C701B6010E9438398B0120E030E09B
:1037600040E85FE3C701B6010E94CB36811127C054
:1037700068E973E080E190E00E948E086CE973E0F4
:1037800084E190E00E948E0860EA73E088E190E0B6
:103790000E948E0864EA73E08CE190E00E948E083B
:1037A00068EA73E080E290E00E948E086CEA73E0C1
:1037B00084E290E00E948E0889E192E002C085E2F6
:1037C00092E00E94F014BE01635D7F4F84E890E0B8
:1037D0000E948E0820E030E040E85FE36DA57EA502
:1037E0008FA598A90E94CB36811125C060E873E0AF
:1037F00088E890E00E948E0864E873E08CE890E02E
:103800000E948E0868E873E080E990E00E948E08CC
:103810006CE873E084E990E00E948E0860E973E050
:1038200088E990E00E948E0864E973E08CE990E0FA
:103830000E948E080CC00130110549F488E1E8E9C6
:10384000F3E0A0E8B3E001900D928A95E1F7BE01A4
:10385000635D7F4F8CEA90E00E948E0820E030E0AC
:1038600040E85FE36DA57EA58FA598A90E94CB36A1
:10387000811125C068E673E080EB90E00E948E081D
:103880006CE673E084EB90E00E948E0860E773E0E2
:1038900088EB90E00E948E0864E773E08CEB90E088
:1038A0000E948E0868E773E080EC90E00E948E082A
:1038B0006CE773E084EC90E00E948E080CC001304D
:1038C000110549F488E1E8E9F3E0A8E6B3E00190E6
:1038D0000D928A95E1F7BE01635D7F4F88EC90E021
:1038E0000E948E0820E030E040E85FE36DA57EA5F1
:1038F0008FA598A90E94CB36811141C081E090E04C
:103900009093E7038093E60368E071E08CEC90E02D
:103910000E948E0864E373E080ED90E00E948E08C0
:1039200060E373E084ED90E00E948E086CE273E047
:1039300088ED90E00E948E0864E071E08CED90E0EC
:103940000E948E0868E273E080EE90E00E948E088C
:1039500064E273E084EE90E00E948E0860E273E01F
:1039600088EE90E00E948E0860E071E08CEE90E0BE
:103970000E948E0882E392E00E94F01408C080E466
:1039800092E00E94F0141092E7031092E603BE0149
:103990006F5D7F4F80EF90E00E948E08BE016B5EEE
:1039A0007F4F84EF90E00E948E08BE016F5F7F4FD3
:1039B00088EF90E00E948E0889A09AA0ABA0BCA0DE
:1039C000CD88DE88EF88F88C29813A814B815C8133
:1039D00061962CAF3DAF4EAF5FAF6197A5019401EB
:1039E000C501B4010E9431372B013C01A7019601AA
:1039F000C701B6010E9431379B01AC01C301B2017E
:103A00000E945A382B013C0161962CAD3DAD4EAD64
:103A10005FAD6197CA01B9010E9431379B01AC01CA
:103A2000C301B2010E945A380E943839072E000C97
:103A3000880B990B0E94D23620E030E040E450E43D
:103A40000E94CB36811142C08092260190922701BC
:103A5000A0922801B0922901C0922201D0922301A4
:103A6000E0922401F092250161968CAD9DADAEAD42
:103A7000BFAD619780931E0190931F01A093200119
:103A8000B09321018FE492E00E94D71569A17AA139
:103A90008BA19CA142E050E00E94EE1481E592E0EF
:103AA0000E94D7156D897E898F89988D42E050E0FC
:103AB0000E94EE1481E592E00E94D71569817A8117
:103AC0008B819C8142E050E00E945C1410925D0466
:103AD00010925C041092A6041092C8041092A404E0
:103AE00081E08093A30410927E0482E10E949115EC
:103AF00083E10E9491158091B9008E7F8093B90077
:103B00008091B9008D7F8093B90088E48093B800DC
:103B100085E48093BC006AE070E080E090E00E9461
:103B2000F9058CE08093B8006AE070E080E090E0F6
:103B30000E94F90560912A0170912B0180912C015E
:103B400090912D010E94383989E490E00E945B1524
:103B500060912A0170912B0180912C0190912D018F
:103B60000E9438398BE490E00E945B1560912A0135
:103B700070912B0180912C0190912D010E94383978
:103B800088E490E00E945B15DE0111963D01FE0184
:103B9000F9962F019E01235C3F4F2D963FAF2EAF2C
:103BA0002D9789EE94E00E94730390930B04809309
:103BB0000A041816190614F00C94342E64E670E00A
:103BC00080E090E00E94F90589EE94E00E94730382
:103BD0007C0190930B0480930A0400EB13E0C8016E
:103BE000805B93408E159F0554F489EE94E00E940B
:103BF00051030E94003AD8018D938D01F0CF00EB64
:103C000013E02091B0038091B103082E000C990BB2
:103C1000B4E62B02800D911D11248333EFE19E0742
:103C200011F40C94B1260CF0FEC287342BE19207FC
:103C300009F499C60CF03FC28D364AE1940709F4A5
:103C4000D5C40CF00BC2873AA9E19A0709F4D1C395
:103C500034F4863A994109F49EC30C94342E813B86
:103C6000F9E19F0709F4E8C3863B994111F00C94F0
:103C7000342E68E973E080E190E00E948E086AE0EB
:103C800070E080E090E00E94F9056CE973E084E167
:103C900090E00E948E086AE070E080E090E00E9470
:103CA000F90560EA73E088E190E00E948E086AE01E
:103CB00070E080E090E00E94F90564EA73E08CE136
:103CC00090E00E948E086AE070E080E090E00E9440
:103CD000F90568EA73E080E290E00E948E086AE0ED
:103CE00070E080E090E00E94F9056CEA73E084E205
:103CF00090E00E948E086AE070E080E090E00E9410
:103D0000F90560E873E088E890E00E948E086AE0B8
:103D100070E080E090E00E94F90564E873E08CE8D0
:103D200090E00E948E086AE070E080E090E00E94DF
:103D3000F90568E873E080E990E00E948E086AE087
:103D400070E080E090E00E94F9056CE873E084E99F
:103D500090E00E948E086AE070E080E090E00E94AF
:103D6000F90560E973E088E990E00E948E086AE056
:103D700070E080E090E00E94F90564E973E08CE96E
:103D800090E00E948E086AE070E080E090E00E947F
:103D9000F90568E673E080EB90E00E948E086AE027
:103DA00070E080E090E00E94F9056CE673E084EB3F
:103DB00090E00E948E086AE070E080E090E00E944F
:103DC000F90560E773E088EB90E00E948E086AE0F6
:103DD00070E080E090E00E94F90564E773E08CEB0E
:103DE00090E00E948E086AE070E080E090E00E941F
:103DF000F90568E773E080EC90E00E948E086AE0C5
:103E000070E080E090E00E94F9056CE773E084ECDC
:103E100090E00E948E086AE070E080E090E00E94EE
:103E2000F90586E292E00E946A146091980370910D
:103E3000990380919A0390919B0346E050E00E9481
:103E4000EE1483E292E00E946A1460918003709104
:103E50008103809182039091830346E050E00E94A9
:103E6000EE1480E292E00E946A14609168037091FF
:103E7000690380916A0390916B0346E050E00E94D1
:103E80005C148AE192E00E946A1460919C03709134
:103E90009D0380919E0390919F0346E050E00E9415
:103EA000EE1487E192E00E946A146091840370919D
:103EB0008503809186039091870346E050E00E943D
:103EC000EE1484E192E00E946A1460916C03709198
:103ED0006D0380916E0390916F0346E050E00E9465
:103EE0005C148EE092E00E946A146091A0037091CD
:103EF000A1038091A2039091A30346E050E00E94A9
:103F0000EE148BE092E00E946A1460918803709135
:103F1000890380918A0390918B0346E050E00E94D0
:103F2000EE1488E092E00E946A1460917003709130
:103F30007103809172039091730346E050E00E94F8
:103F40005C1482E092E00E946A146091A403709174
:103F5000A5038091A6039091A70346E050E00E943C
:103F6000EE148FEF91E00E946A1460918C037091BF
:103F70008D0380918E0390918F0346E050E00E9464
:103F8000EE148CEF91E00E946A14609174037091BA
:103F90007503809176039091770346E050E00E948C
:103FA0005C1486EF91E00E946A146091A8037091FE
:103FB000A9038091AA039091AB0346E050E00E94D0
:103FC000EE1483EF91E00E946A1460919003709167
:103FD0009103809192039091930346E050E00E94F8
:103FE000EE1480EF91E00E946A1460917803709162
:103FF000790380917A0390917B0346E050E00E9420
:104000005C148AEE91E00E946A146091AC03709196
:10401000AD038091AE039091AF0346E050E00E9463
:10402000EE1487EE91E00E946A14609194037091FF
:104030009503809196039091970346E050E00E948B
:10404000EE1484EE91E00E946A1460917C037091FA
:104050007D0380917E0390917F0377C6833E3AE192
:10406000930711F40C94322E5CF482385AE19507D0
:1040700009F438C3823D9A4109F466C30C94342E86
:104080008533BBE19B0709F497C383349B4111F04F
:104090000C94342E60E573E084E090E00E942608E2
:1040A00064E573E08CE790E00E94260868E573E021
:1040B00084EA90E068C48630FEE19F0709F4FBC4FF
:1040C00064F58F3F3DE1930709F465C484F48F30B4
:1040D0005CE1950709F45BC489369C4111F00C94AE
:1040E000342E88E392E00E94E0140C94342E811563
:1040F000BEE19B0709F459C483309E4111F00C9432
:10410000342E83E592E00E94E01481E090E09093E9
:104110002F0180932E010C94342E8932FFE19F07EA
:1041200009F45AC50CF074C08B3C3EE1930709F4C6
:10413000FCC48D319F4111F00C94342E40911A0132
:1041400050911B0164E670E0C3010E94241620E038
:1041500030E543EC57E469817A818B819C810E9430
:1041600031370E943839072E000C880B990B0E94BA
:10417000D2362CEA35EC47E257E30E9431376093A0
:10418000500370935103809352039093530320E0A4
:1041900030E543EC57E46D817E818F8198850E94E4
:1041A00031370E943839072E000C880B990B0E947A
:1041B000D2362CEA35EC47E257E30E943137609360
:1041C000540370935503809356039093570320E054
:1041D00030E543EC57E469857A858B859C850E94A0
:1041E00031370E943839072E000C880B990B0E943A
:1041F000D2362CEA35EC47E257E30E943137609320
:1042000058037093590380935A0390935B03DCC463
:104210008E325FE1950709F45EC582339F4109F450
:10422000B3C40C94342E8B35B0E29B0711F40C947C
:10423000232A0CF067C0853FFFE19F0709F474C78C
:1042400004F585383FE1930709F40EC64CF4833832
:104250009F4111F00C94342E0E94EB090C94342EE3
:104260008738AFE19A0709F406C683399F4111F0F8
:104270000C94342E63E070E089E490E00E94D9153C
:1042800076C68E34E0E29E0709F466C720910804E2
:10429000309109048F34F0E29F0784F48B3440E2BC
:1042A000940709F445C78D34904211F00C94342ED4
:1042B00010921D0110921C010C94342E8535A0E241
:1042C0009A0709F483C78735904211F00C94342E75
:1042D0001092AC051092AD051092AE051092AF058C
:1042E0001092B0051092B1051092B2051092B3056C
:1042F0001092B4051092B5051092B6051092B7054C
:104300000C94342E8431E1E29E0711F40C94FA2BC4
:104310000CF58E3B20E2920711F40C942A2B6CF4DE
:104320008C3540E2940711F40C94722A893B904238
:1043300011F40C947F2A0C94342E8F3BA0E29A0740
:1043400011F40C94722B833C904211F40C94972B33
:104350000C94342E853EE1E29E0711F40C94B92CA6
:104360006CF4833221E2920711F40C94432C8B3DC0
:10437000914211F40C94822C0C94342E823442E23B
:10438000940711F40C949A2D8035924211F40C94F8
:10439000E72D0C94342E89EC94E09F938F9383E562
:1043A00092E09F938F9380EB93E09F938F930E9473
:1043B000133A89EC94E00E94E3320F900F900F9033
:1043C0000F900F900F9020E030E040E85FE30E94F4
:1043D000CB36882331F01092E3031092E2030C9461
:1043E000322E81E090E09093E3038093E2030C94FB
:1043F000322E7F926F9289E592E09F938F931F9365
:104400000F930E94133A0F900F900F900F900F9000
:104410000F9089819A818130910539F49093E90355
:104420008093E80388ED91E0CDC31092E9031092E8
:10443000E8038DEC91E0C6C389EC94E09F938F93E1
:104440007F926F928FE592E09F938F9380EB93E042
:104450009F938F930E94133A0E941D1389EC94E05E
:104460000E94E3320FB6F894DEBF0FBECDBFE981E4
:10447000FA81E231F10510F00C94342EEC5CFF4F20
:104480000C94F539609398037093990380939A0381
:1044900090939B030C94342E60939C0370939D0324
:1044A00080939E0390939F030C94342E6093A003FB
:1044B0007093A1038093A2039093A3030C94342ED2
:1044C0006093A4037093A5038093A6039093A7031E
:1044D0000C94342E6093A8037093A9038093AA03CD
:1044E0009093AB030C94342E6093AC037093AD03A4
:1044F0008093AE039093AF030C94342E60938003AB
:104500007093810380938203909383030C94342EE1
:10451000609384037093850380938603909387034D
:104520000C94342E609388037093890380938A03DC
:1045300090938B030C94342E60938C0370938D03B3
:1045400080938E0390938F030C94342E609390038A
:104550007093910380939203909393030C94342E61
:1045600060939403709395038093960390939703BD
:104570000C94342E609368037093690380936A03EC
:1045800090936B030C94342E60936C0370936D03C3
:1045900080936E0390936F030C94342E609370039A
:1045A0007093710380937203909373030C94342E71
:1045B00060937403709375038093760390937703ED
:1045C0000C94342E609378037093790380937A036C
:1045D00090937B030C94342E60937C0370937D0343
:1045E00080937E0390937F030C94342E89EC94E0A7
:1045F0009F938F9388E692E09F938F931F930F93DF
:104600000E94133A89EC94E00E94E3320F900F90DD
:104610000F900F900F900F9020E030E040E85FE3A4
:104620000E94CB36882331F01092E5031092E40308
:104630000C94322E81E090E09093E5038093E403A4
:1046400040911A0150911B0160911801709119015C
:10465000EDB7FEB778970FB6F894FEBF0FBEEDBF6B
:10466000ADB7BEB7119688E1E0E5F3E001900D9299
:104670008A95E1F72DB73EB7285131090FB6F89466
:104680003EBF0FBE2DBFADB7BEB7119688E1E8E6BD
:10469000F3E001900D928A95E1F78DB79EB74897A8
:1046A0000FB6F8949EBF0FBE8DBFADB7BEB71196C3
:1046B00088E1E0E8F3E001900D928A95E1F7ADB76B
:1046C000BEB758970FB6F894BEBF0FBEADBF1196D8
:1046D00088E1E8E9F3E001900D928A95E1F786EF31
:1046E00093E0E0C189EC94E09F938F938EE692E093
:1046F0009F938F9380EB93E09F938F930E94133A45
:1047000089EC94E00E94E3320F900F900F900F908D
:104710000F900F9020E030E040E85FE30E94CB363E
:10472000811109C080E090E0A0E8BFE389839A830B
:10473000AB83BC8304C019821A821B821C82B30122
:1047400080E090E00C94E42D8AE191E09F938F93B8
:1047500089EC94E09F938F9384E792E09F938F93EB
:1047600080EB93E09F938F930E94133A8CE292E048
:104770000E946A146AE070E080911A0190911B0116
:104780000E94CD1480911A0190911B010FB6F894EC
:10479000DEBF0FBECDBF8C30910534F08331910563
:1047A0002CF082E190E002C08CE090E090931B013D
:1047B00080931A010C94322E68E973E080E190E056
:1047C0000E9426086AE070E080E090E00E94F9050F
:1047D0006CE973E084E190E00E9426086AE070E0F2
:1047E00080E090E00E94F90560EA73E088E190E0E3
:1047F0000E9426086AE070E080E090E00E94F905DF
:1048000064EA73E08CE190E00E9426086AE070E0C0
:1048100080E090E00E94F90568EA73E080E290E0B1
:104820000E9426086AE070E080E090E00E94F905AE
:104830006CEA73E084E290E00E9426086AE070E08F
:1048400080E090E00E94F90560E873E088E890E07D
:104850000E9426086AE070E080E090E00E94F9057E
:1048600064E873E08CE890E00E9426086AE070E05B
:1048700080E090E00E94F90568E873E080E990E04C
:104880000E9426086AE070E080E090E00E94F9054E
:104890006CE873E084E990E00E9426086AE070E02A
:1048A00080E090E00E94F90560E973E088E990E01B
:1048B0000E9426086AE070E080E090E00E94F9051E
:1048C00064E973E08CE990E00E9426086AE070E0F9
:1048D00080E090E00E94F90568E673E080EB90E0EC
:1048E0000E9426086AE070E080E090E00E94F905EE
:1048F0006CE673E084EB90E00E9426086AE070E0CA
:1049000080E090E00E94F90560E773E088EB90E0BA
:104910000E9426086AE070E080E090E00E94F905BD
:1049200064E773E08CEB90E00E9426086AE070E098
:1049300080E090E00E94F90568E773E080EC90E089
:104940000E9426086AE070E080E090E00E94F9058D
:104950006CE773E084EC90E00E9426086AE070E067
:1049600080E090E035C16CE573E088E090E00E9463
:10497000260860E673E080E890E00E94260864E67E
:1049800073E088EA90E00E9426080C94342E0E947E
:10499000CD090C94342E8EE392E00E94E014109224
:1049A0002F0110922E010C94342E89EC94E09F93E9
:1049B0008F938AE792E09F938F9380EB93E09F938E
:1049C0008F930E94133A89EC94E00E94E3320F9097
:1049D0000F900F900F900F900F9020E030E040E884
:1049E0005FE30E94CB36882331F0109217011092BA
:1049F00016010C94322E81E090E090931701809381
:104A0000160140911A0150911B016091180170919B
:104A100019018DB79EB748970FB6F8949EBF0FBE89
:104A20008DBFADB7BEB7119688E1E0E5F3E0019028
:104A30000D928A95E1F7ADB7BEB758970FB6F894C7
:104A4000BEBF0FBEADBF119688E1E8E6F3E001906E
:104A50000D928A95E1F7EDB7FEB778970FB6F89407
:104A6000FEBF0FBEEDBFADB7BEB7119688E1E0E85F
:104A7000F3E001900D928A95E1F72DB73EB72851EA
:104A800031090FB6F8943EBF0FBE2DBFADB7BEB70C
:104A9000119688E1E8E9F3E001900D928A95E1F73B
:104AA00088E393E00E94A0180FB6F894DEBF0FBE13
:104AB000CDBF0C94322E89EC94E09F938F9380E8C5
:104AC00092E09F938F931F930F930E94133A89EC68
:104AD00094E00E94E3320F900F900F900F900F9090
:104AE0000F9020E030E040E85FE30E94CB36811178
:104AF00009C080E090E0A0E8BFE389839A83AB839C
:104B0000BC8304C019821A821B821C82B3018CE010
:104B100090E00E942608B30184E890E00E942608F5
:104B2000B3018CEA90E00C94E42D88E191E09F932E
:104B30008F9386E892E09F938F9380EB93E09F930F
:104B40008F930E94133A0F900F900F900F900F9039
:104B50000F9080911801909119011816190634F0E0
:104B600081E090E0909319018093180185E692E02E
:104B70000E946A146AE070E0809118019091190116
:104B80000E94CD140C94322E7F926F9281EA92E0B3
:104B90009F938F9380EB93E09F938F930E94133AA0
:104BA0000F900F900F900F900F900F9089819A8126
:104BB0008130910509F0CEC09093E7038093E6031E
:104BC0008EE992E00E94E01460ED77E080E090E0F2
:104BD0000E94F9050C94322E7F926F92ACE8EA2E77
:104BE000A2E0FA2EFF92EF921F930F930E94133AC6
:104BF000898188550F900F900F900F900F900F9014
:104C0000833008F043C089EC94E09F938F937F92A8
:104C10006F9282E992E09F938F931F930F930E946C
:104C2000133A0E941D130FB6F894DEBF0FBECDBF1E
:104C30008981893581F08A35E1F089EC94E00E9420
:104C4000E332609350037093510380935203909327
:104C500053030C94322E89EC94E00E94E33260936B
:104C600054037093550380935603909357030C9409
:104C7000322E89EC94E00E94E332609358037093E3
:104C8000590380935A0390935B03ECC789EC94E03B
:104C90009F938F93FF92EF921F930F930E94133A6B
:104CA0000E941D1389EC94E00E94E332609350034C
:104CB00070935103809352039093530383E792E0E0
:104CC0000E946A14609150037091510380915203C5
:104CD00090915303BEC05F924F928BE992E09F93F5
:104CE0008F9380EB93E09F938F930E94133A85E814
:104CF00092E00E946A140F900F900F900F900F9007
:104D00000F9089AD893549F08A3571F083E892E0DA
:104D10000E946A1484E090E00DC081E892E00E9455
:104D20006A148CE790E006C08FE792E00E946A1454
:104D300084EA90E0B3010E948E088CE792E00E9422
:104D40006A1469817A818B819C8146E050E00E94DF
:104D50005C1488C71092E7031092E6038FE892E094
:104D600031CF7F926F92F7EAEF2EF2E0FF2EFF92A3
:104D7000EF921F930F930E94133A898188550F90E9
:104D80000F900F900F900F900F90833008F040C05D
:104D900089EC94E09F938F937F926F928DEA92E0DB
:104DA0009F938F931F930F930E94133A0E941D139A
:104DB0000FB6F894DEBF0FBECDBF8981893571F083
:104DC0008A35D1F089EC94E00E94E33269AF7AAF82
:104DD0008BAF9CAFB20184E090E00BC089EC94E013
:104DE0000E94E33269AF7AAF8BAF9CAFB2018CE720
:104DF00090E00E945A0836C789EC94E00E94E332A2
:104E000069AF7AAF8BAF9CAFB20184EA90E0F1CF8B
:104E100089EC94E09F938F93FF92EF921F930F93EF
:104E20000E94133A0E941D1389EC94E00E94E33221
:104E300069AF7AAF8BAF9CAFB20184E090E00E9483
:104E40005A088CEA92E00E946A1489EC94E00E946D
:104E5000E33246E050E00E945C140F900F900F90F8
:104E60000F900F900F90FEC681E090E090931D018F
:104E700080931C01F9C67F926F9286EB92E09F931C
:104E80008F9380EB93E09F938F930E94133A0F9040
:104E90000F900F900F900F900F9089819A8184301E
:104EA0009105D1F054F48130910589F0029731F5E4
:104EB00020E030E040E050E425C088309105C9F0A2
:104EC0004097E1F480E090E0A0E8B1E409C080E020
:104ED00090E0A0E8BFE304C080E090E0A0E8B0E488
:104EE00080932A0190932B01A0932C01B0932D0164
:104EF00011C020E030E040E051E404C020E030E0A8
:104F000040E851E420932A0130932B0140932C0177
:104F100050932D010E94BC0960912A0170912B01D0
:104F200080912C0190912D010E94383989E490E004
:104F30000E945B1560912A0170912B0180912C01D8
:104F400090912D010E9438398BE490E00E945B150E
:104F500060912A0170912B0180912C0190912D017B
:104F60000E94383988E490E00E945B157DC69091DC
:104F70005C0480915D04981711F186E895E00E9429
:104F80005F0486E895E00E945F048BE093E00E9456
:104F90006A1486E895E00E945F04BC01990F880BB3
:104FA000990B42E00E9447138DEF92E00E946A1431
:104FB00062E070E089E490E00E94CD14D8CF63E015
:104FC00070E08BE490E00E94D91590915C04809190
:104FD0005D04981711F186E895E00E945F0486E869
:104FE00095E00E945F0489EF92E00E946A1486E8CF
:104FF00095E00E945F04BC01990F880B990B42E079
:105000000E9447138BEE92E00E946A1462E070E007
:105010008BE490E00E94CD14D8CF63E070E088E488
:1050200090E00E94D91590915C0480915D049817DE
:1050300011F186E895E00E945F0486E895E00E9401
:105040005F0487EE92E00E946A1486E895E00E9471
:105050005F04BC01990F880B990B42E00E94471333
:1050600089ED92E00E946A1462E070E088E490E0CA
:105070000E94CD14D8CF83ED92E00E946A14609113
:10508000160170911701072E000C880B990B4AE04E
:1050900050E00E948B1481ED92E00E946A146091AE
:1050A000100170911101809112019091130142E061
:1050B00050E00E94EE148FEC92E00E946A1460911E
:1050C0000C0170910D0180910E0190910F0142E051
:1050D00050E00E945C1488EC92E00E946A146AE03E
:1050E00070E08091E6039091E7030E94CD1482EC7A
:1050F00092E00E946A146AE070E080912E01909123
:105100002F010E94CD148CEB92E00E946A146091F2
:105110002A0170912B0180912C0190912D0142E088
:1051200050E00E945C14A0C5E0E0F0E009959CC549
:105130002130310521F48FE093E00E94E0141092B9
:1051400003041092020410920904109208041092B1
:105150001D0110921C01EEC319821A821B821C824F
:105160005F924F928CEB92E09F938F931F930F93DC
:105170000E94133A89AD9AADB301880F991F880F29
:10518000991F0E948E0884E293E00E946A1469AD20
:105190007AAD072E000C880B990B4AE050E00E9474
:1051A0008B148FE193E00E946A1469817A818B816C
:1051B0009C8146E050E00E945C140E94BC090F9064
:1051C0000F900F900F900F900F904EC5232B21F44E
:1051D00080E393E00E94E01481E090E09093090462
:1051E0008093080490931D0180931C01C090E803F4
:1051F000D090E903F1E0CF16D10409F4E6C06AE0EB
:10520000E62EF12C18E140911A0150911B012DB7A7
:105210003EB7285131090FB6F8943EBF0FBE2DBFDF
:10522000ADB7BEB71196E0E5F3E0812F01900D9286
:105230008A95E1F78DB79EB748970FB6F8949EBF51
:105240000FBE8DBFADB7BEB71196E8E6F3E0812F74
:1052500001900D928A95E1F7ADB7BEB758970FB69A
:10526000F894BEBF0FBEADBF1196E0E8F3E0812F0A
:1052700001900D928A95E1F7EDB7FEB778970FB6DA
:10528000F894FEBF0FBEEDBFADB7BEB71196E8E90B
:10529000F3E0812F01900D928A95E1F761E070E0D3
:1052A000C3010E94A0188BEA96E30197F1F7F1E0A1
:1052B000EF1AF1082DB73EB7205A3F4F0FB6F894BA
:1052C000DEBF0FBECDBFE114F10409F09CCF4091C9
:1052D0001A0150911B0160911801709119018DB74D
:1052E0009EB748970FB6F8949EBF0FBE8DBFADB75F
:1052F000BEB7119688E1E0E5F3E001900D928A9542
:10530000E1F7ADB7BEB758970FB6F894BEBF0FBE62
:10531000ADBF119688E1E8E6F3E001900D928A9521
:10532000E1F7EDB7FEB778970FB6F894FEBF0FBE62
:10533000EDBFADB7BEB7119688E1E0E8F3E00190AC
:105340000D928A95E1F7205631090FB6F8943EBFC9
:105350000FBE2DBFADB7BEB7119688E1E8E9F3E007
:1053600001900D928A95E1F7C3010E94A0180FB633
:10537000F894DEBF0FBECDBF8091E6039091E703A6
:105380000197D1F4CD28C1F4C980DA80EB80FC808C
:105390000D811E812F81388549855A856B857C85D5
:1053A000CE01CF960E94B4088CE0FE01FF96D30197
:1053B00001900D928A95E1F78CE0F301AAEEB3E03B
:1053C00001900D928A95E1F71EC0609118017091CD
:1053D00019018DB79EB748970FB6F8949EBF0FBEC0
:1053E0008DBFADB7BEB7119688E1E0E5F3E001905F
:1053F0000D928A95E1F7C3010E94700F0FB6F894E1
:10540000DEBF0FBECDBF8091E2039091E303019711
:1054100019F48CE293E002C088E293E00E946A14DF
:10542000C090E203D090E303E984FA840B851C85E5
:105430002D813E814F81588569817A818B819C8144
:10544000A12CB12C74C32091EA033091EB0340915D
:10545000EC035091ED036091AC057091AD05809126
:10546000AE059091AF050E945A386093AC057093D9
:10547000AD058093AE059093AF052091EE0330917A
:10548000EF034091F0035091F1036091B0057091EA
:10549000B1058091B2059091B3050E945A3860938E
:1054A000B0057093B1058093B2059093B305209138
:1054B000F2033091F3034091F4035091F5036091AE
:1054C000B4057091B5058091B6059091B7050E941D
:1054D0005A386093B4057093B5058093B6059093E0
:1054E000B705C2C38CE393E00E946A146091100177
:1054F00070911101809112019091130126CC7F923D
:105500006F9252ECE52E52E0F52EFF92EF9200EBF7
:1055100013E01F930F930E94133A898188550F90CF
:105520000F900F900F900F900F90833008F059C09C
:1055300089EC94E09F938F937F926F9288EC92E036
:105540009F938F931F930F930E94133A0E941D13F2
:105550000FB6F894DEBF0FBECDBF89818935B9F093
:105560008A3551F189EC94E00E94E3329B01AC0151
:1055700060E070E08AE794E40E94C63860935C03C0
:1055800070935D0380935E0390935F036BC389EC1C
:1055900094E00E94E3329B01AC0160E070E08AE796
:1055A00094E40E94C6386093600370936103809313
:1055B00062039093630356C389EC94E00E94E33244
:1055C0009B01AC0160E070E08AE794E40E94C63879
:1055D00060936403709365038093660390936703FD
:1055E00041C389EC94E09F938F93FF92EF921F93B6
:1055F0000F930E94133A0E941D1389EC94E00E94BD
:10560000E3326B017C018CE493E00E946A1446E073
:1056100050E0C701B6010E945C14A701960160E04A
:1056200070E08AE794E40E94C63860935C0370934C
:105630005D0380935E0390935F0380E493E00E9498
:105640006A1460915C0370915D0380915E03909198
:105650005F03FFCB88E693E00E94E014B30188E08B
:1056600090E00E948E0882E693E00E946A142981ED
:105670003A814B815C8160E070E08AE794E40E94AB
:10568000C63842E050E00E945C14B30180E890E02C
:105690000E948E088CE593E00E946A1429813A8169
:1056A0004B815C8160E070E08AE794E40E94C63838
:1056B00042E050E00E945C14B30188EA90E00E944E
:1056C0008E0886E593E00E946A1429813A814B8115
:1056D0005C8160E070E08AE794E40E94C63842E0B2
:1056E00050E035CB08E210E0D801A557BC4FF201DD
:1056F0008D9181932D962EAD3FAD2D97E217F30737
:10570000B9F759AD4AAD3BAD2CAD852F942FA32FE2
:10571000B22F89839A83AB83BC83B301C8010E94F3
:1057200026080C5F1F4F08341105F1F69BC27F92CB
:105730006F9241EDE42E42E0F42EFF92EF9200EBE7
:1057400013E01F930F930E94133A898188550F909D
:105750000F900F900F900F900F90833020F589ECF1
:1057600094E09F938F937F926F9287ED92E09F9347
:105770008F931F930F930E94133A0E941D1389EC7D
:1057800094E00E94E3320FB6F894DEBF0FBECDBFA7
:105790002981293529F02A35E1F408EA10E01BC0F7
:1057A00000E810E018C089EC94E09F938F93FF927B
:1057B000EF921F930F930E94133A0E941D1389ECDE
:1057C00094E00E94E3320F900F900F900F900F9093
:1057D0000F9008E010E09B01AC0160E070E08AE708
:1057E00094E40E94C63869AF7AAF8BAF9CAFB20128
:1057F000C801FFCA89EC94E09F938F9380EE92E0FA
:105800009F938F931F930F930E94133A89EC94E018
:105810000E94E3320E9438390F900F900F900F9042
:105820000F900F906B307105810591054CF06093DE
:10583000040470930504809306049093070408C041
:1058400010920404109205041092060410920704AA
:1058500087E793E00E946A14609104047091050444
:1058600080910604909107044AE050E00E948B1456
:1058700086EE92E00E942A1360ED77E080E090E0EF
:105880000E94F905F1C17F926F9289EE92E09F9399
:105890008F9380EB93E09F938F930E94133A0F9026
:1058A0000F900F900F900F900F9089819A81009721
:1058B00021F18130910509F5909315018093140130
:1058C0000E94D4050E94D03660934C0370934D0320
:1058D00080934E0390934F03109248031092490314
:1058E00010924A0310924B03109244031092450306
:1058F0001092460310924703B5C110921501109201
:105900001401B0C18091080490910904019721F419
:105910008DE793E00E94E0141092090410920804AD
:1059200010921D0110921C0181E090E090930304FD
:10593000809302040E94BC090E94D4050E94D036C4
:1059400060934C0370934D0380934E0390934F03E9
:10595000109248031092490310924A0310924B038D
:10596000109244031092450310924603109247038D
:105970007BC18091080490910904892B21F48DE961
:1059800093E00E94E01481E090E0909309048093FA
:10599000080490931D0180931C018091E80390916D
:1059A000E903019709F43EC00AE010E040911A01B2
:1059B00050911B0161E070E0CE0145960E942416D3
:1059C0008BEA96E30197F1F70150110979F74091BD
:1059D0001A0150911B016091180170911901CE01BB
:1059E00045960E9424168D899E89AF89B88D61964F
:1059F0008CAF9DAFAEAFBFAF6197298D3A8D4B8D08
:105A00005C8D65962CAF3DAF4EAF5FAF65972D8D2A
:105A10003E8D4F8D58A169962CAF3DAF4EAF5FAF15
:105A2000699760C060911801709119014DB75EB718
:105A3000485151090FB6F8945EBF0FBE4DBFADB7C8
:105A4000BEB7119688E1E0E5F3E001900D928A95EA
:105A5000E1F7CE0145960E94700F6D897E898F898E
:105A6000988D898C9A8CAB8CBC8CCD8CDE8CEF8C19
:105A7000F8A020915C0330915D0340915E0350914A
:105A80005F030E94C63861966CAF7DAF8EAF9FAF4B
:105A900061972091600330916103409162035091BE
:105AA0006303C501B4010E94C63865966CAF7DAF33
:105AB0008EAF9FAF6597209164033091650340914D
:105AC000660350916703C701B6010E94C638699604
:105AD0006CAF7DAF8EAF9FAF69970FB6F894DEBF06
